{
  "_format": "hh-sol-artifact-1",
  "contractName": "Guestbook",
  "sourceName": "contracts/Guestbook.sol",
  "abi": [
    {
      "anonymous": false,
      "inputs": [
        {
          "indexed": true,
          "internalType": "address",
          "name": "signer",
          "type": "address"
        },
        {
          "indexed": false,
          "internalType": "string",
          "name": "message",
          "type": "string"
        },
        {
          "indexed": false,
          "internalType": "uint256",
          "name": "timestamp",
          "type": "uint256"
        }
      ],
      "name": "NewSignature",
      "type": "event"
    },
    {
      "inputs": [
        {
          "internalType": "uint256",
          "name": "",
          "type": "uint256"
        }
      ],
      "name": "entries",
      "outputs": [
        {
          "internalType": "address",
          "name": "signer",
          "type": "address"
        },
        {
          "internalType": "string",
          "name": "message",
          "type": "string"
        },
        {
          "internalType": "uint256",
          "name": "timestamp",
          "type": "uint256"
        }
      ],
      "stateMutability": "view",
      "type": "function"
    },
    {
      "inputs": [
        {
          "internalType": "uint256",
          "name": "_limit",
          "type": "uint256"
        }
      ],
      "name": "getLastSignatures",
      "outputs": [
        {
          "components": [
            {
              "internalType": "address",
              "name": "signer",
              "type": "address"
            },
            {
              "internalType": "string",
              "name": "message",
              "type": "string"
            },
            {
              "internalType": "uint256",
              "name": "timestamp",
              "type": "uint256"
            }
          ],
          "internalType": "struct Guestbook.Entry[]",
          "name": "",
          "type": "tuple[]"
        }
      ],
      "stateMutability": "view",
      "type": "function"
    },
    {
      "inputs": [],
      "name": "getTotalSignatures",
      "outputs": [
        {
          "internalType": "uint256",
          "name": "",
          "type": "uint256"
        }
      ],
      "stateMutability": "view",
      "type": "function"
    },
    {
      "inputs": [
        {
          "internalType": "string",
          "name": "_message",
          "type": "string"
        }
      ],
      "name": "signBook",
      "outputs": [],
      "stateMutability": "nonpayable",
      "type": "function"
    }
  ],
  "bytecode": "0x608060405234801561001057600080fd5b50610ed2806100206000396000f3fe608060405234801561001057600080fd5b506004361061004c5760003560e01c80630c0b212314610051578063b30906d414610081578063bf09c6e2146100b3578063f7afe36d146100d1575b600080fd5b61006b60048036038101906100669190610610565b6100ed565b604051610078919061082f565b60405180910390f35b61009b60048036038101906100969190610610565b61033f565b6040516100aa939291906108b9565b60405180910390f35b6100bb610421565b6040516100c891906108f7565b60405180910390f35b6100eb60048036038101906100e69190610a47565b61042d565b005b60606000808054905090506000810361015d57600067ffffffffffffffff81111561011b5761011a61091c565b5b60405190808252806020026020018201604052801561015457816020015b61014161058f565b8152602001906001900390816101395790505b5091505061033a565b60008390508181111561016e578190505b60008167ffffffffffffffff81111561018a5761018961091c565b5b6040519080825280602002602001820160405280156101c357816020015b6101b061058f565b8152602001906001900390816101a85790505b50905060005b82811015610332576000816001866101e19190610abf565b6101eb9190610abf565b815481106101fc576101fb610af3565b5b90600052602060002090600302016040518060600160405290816000820160009054906101000a900473ffffffffffffffffffffffffffffffffffffffff1673ffffffffffffffffffffffffffffffffffffffff1673ffffffffffffffffffffffffffffffffffffffff16815260200160018201805461027b90610b51565b80601f01602080910402602001604051908101604052809291908181526020018280546102a790610b51565b80156102f45780601f106102c9576101008083540402835291602001916102f4565b820191906000526020600020905b8154815290600101906020018083116102d757829003601f168201915b5050505050815260200160028201548152505082828151811061031a57610319610af3565b5b602002602001018190525080806001019150506101c9565b508093505050505b919050565b6000818154811061034f57600080fd5b90600052602060002090600302016000915090508060000160009054906101000a900473ffffffffffffffffffffffffffffffffffffffff169080600101805461039890610b51565b80601f01602080910402602001604051908101604052809291908181526020018280546103c490610b51565b80156104115780601f106103e657610100808354040283529160200191610411565b820191906000526020600020905b8154815290600101906020018083116103f457829003601f168201915b5050505050908060020154905083565b60008080549050905090565b6000815111610471576040517f08c379a000000000000000000000000000000000000000000000000000000000815260040161046890610bce565b60405180910390fd5b600060405180606001604052803373ffffffffffffffffffffffffffffffffffffffff168152602001838152602001428152509050600081908060018154018082558091505060019003906000526020600020906003020160009091909190915060008201518160000160006101000a81548173ffffffffffffffffffffffffffffffffffffffff021916908373ffffffffffffffffffffffffffffffffffffffff160217905550602082015181600101908161052e9190610d9a565b506040820151816002015550503373ffffffffffffffffffffffffffffffffffffffff167f111fd894ba9555c95e4f775bcb6bc1d57cd300455799c562a6f463ae74dd84198342604051610583929190610e6c565b60405180910390a25050565b6040518060600160405280600073ffffffffffffffffffffffffffffffffffffffff16815260200160608152602001600081525090565b6000604051905090565b600080fd5b600080fd5b6000819050919050565b6105ed816105da565b81146105f857600080fd5b50565b60008135905061060a816105e4565b92915050565b600060208284031215610626576106256105d0565b5b6000610634848285016105fb565b91505092915050565b600081519050919050565b600082825260208201905092915050565b6000819050602082019050919050565b600073ffffffffffffffffffffffffffffffffffffffff82169050919050565b600061069482610669565b9050919050565b6106a481610689565b82525050565b600081519050919050565b600082825260208201905092915050565b60005b838110156106e45780820151818401526020810190506106c9565b60008484015250505050565b6000601f19601f8301169050919050565b600061070c826106aa565b61071681856106b5565b93506107268185602086016106c6565b61072f816106f0565b840191505092915050565b610743816105da565b82525050565b6000606083016000830151610761600086018261069b565b50602083015184820360208601526107798282610701565b915050604083015161078e604086018261073a565b508091505092915050565b60006107a58383610749565b905092915050565b6000602082019050919050565b60006107c58261063d565b6107cf8185610648565b9350836020820285016107e185610659565b8060005b8581101561081d57848403895281516107fe8582610799565b9450610809836107ad565b925060208a019950506001810190506107e5565b50829750879550505050505092915050565b6000602082019050818103600083015261084981846107ba565b905092915050565b61085a81610689565b82525050565b600082825260208201905092915050565b600061087c826106aa565b6108868185610860565b93506108968185602086016106c6565b61089f816106f0565b840191505092915050565b6108b3816105da565b82525050565b60006060820190506108ce6000830186610851565b81810360208301526108e08185610871565b90506108ef60408301846108aa565b949350505050565b600060208201905061090c60008301846108aa565b92915050565b600080fd5b600080fd5b7f4e487b7100000000000000000000000000000000000000000000000000000000600052604160045260246000fd5b610954826106f0565b810181811067ffffffffffffffff821117156109735761097261091c565b5b80604052505050565b60006109866105c6565b9050610992828261094b565b919050565b600067ffffffffffffffff8211156109b2576109b161091c565b5b6109bb826106f0565b9050602081019050919050565b82818337600083830152505050565b60006109ea6109e584610997565b61097c565b905082815260208101848484011115610a0657610a05610917565b5b610a118482856109c8565b509392505050565b600082601f830112610a2e57610a2d610912565b5b8135610a3e8482602086016109d7565b91505092915050565b600060208284031215610a5d57610a5c6105d0565b5b600082013567ffffffffffffffff811115610a7b57610a7a6105d5565b5b610a8784828501610a19565b91505092915050565b7f4e487b7100000000000000000000000000000000000000000000000000000000600052601160045260246000fd5b6000610aca826105da565b9150610ad5836105da565b9250828203905081811115610aed57610aec610a90565b5b92915050565b7f4e487b7100000000000000000000000000000000000000000000000000000000600052603260045260246000fd5b7f4e487b7100000000000000000000000000000000000000000000000000000000600052602260045260246000fd5b60006002820490506001821680610b6957607f821691505b602082108103610b7c57610b7b610b22565b5b50919050565b7f4d6573736167652063616e6e6f7420626520656d707479000000000000000000600082015250565b6000610bb8601783610860565b9150610bc382610b82565b602082019050919050565b60006020820190508181036000830152610be781610bab565b9050919050565b60008190508160005260206000209050919050565b60006020601f8301049050919050565b600082821b905092915050565b600060088302610c507fffffffffffffffffffffffffffffffffffffffffffffffffffffffffffffffff82610c13565b610c5a8683610c13565b95508019841693508086168417925050509392505050565b6000819050919050565b6000610c97610c92610c8d846105da565b610c72565b6105da565b9050919050565b6000819050919050565b610cb183610c7c565b610cc5610cbd82610c9e565b848454610c20565b825550505050565b600090565b610cda610ccd565b610ce5818484610ca8565b505050565b5b81811015610d0957610cfe600082610cd2565b600181019050610ceb565b5050565b601f821115610d4e57610d1f81610bee565b610d2884610c03565b81016020851015610d37578190505b610d4b610d4385610c03565b830182610cea565b50505b505050565b600082821c905092915050565b6000610d7160001984600802610d53565b1980831691505092915050565b6000610d8a8383610d60565b9150826002028217905092915050565b610da3826106aa565b67ffffffffffffffff811115610dbc57610dbb61091c565b5b610dc68254610b51565b610dd1828285610d0d565b600060209050601f831160018114610e045760008415610df2578287015190505b610dfc8582610d7e565b865550610e64565b601f198416610e1286610bee565b60005b82811015610e3a57848901518255600182019150602085019450602081019050610e15565b86831015610e575784890151610e53601f891682610d60565b8355505b6001600288020188555050505b505050505050565b60006040820190508181036000830152610e868185610871565b9050610e9560208301846108aa565b939250505056fea264697066735822122011974d132089c0cc7c538ad8144cb2c2016f6d45663f0dee71fa3f2288e6245164736f6c63430008180033",
  "linkReferences": {},
  "deployedLinkReferences": {}
}